:020000040000FA
:0400000007EF00F016
:1000080059823FED0FF088EF13F0800E026E000E5C
:1000180043EC15F0000ED76E060ED66EF294000E65
:100028000001646F000E656F000E666F000E676F4B
:10003800F28A730E036E2E0E046E800E056E52EC5D
:1000480013F0590E036E2E0E046EC80E056E52EC98
:1000580013F0000E71EC12F0486E4250D8A437EF3E
:1000680000F039EF00F0D3EF00F04828D8A43FEFB4
:1000780000F041EF00F095EF00F03E503F10D8B48B
:1000880048EF00F04AEF00F095EF00F0000E3F6EE9
:10009800000E3E6E51500A0DF3CF11F0F4CF12F05E
:1000A80052501126000E1222F00E1124186EFD0E69
:1000B8001220196E195007E13B0E185CD8B067EF93
:1000C80000F069EF00F06DEF00F0184A192A7BEF95
:1000D80000F03B0E18181910D8A475EF00F077EF50
:1000E80000F07BEF00F0000E196E000E186E18C0BD
:1000F80001F019C002F0000E046E0A0E036EACEC9B
:1001080012F00150300F516E18C001F019C002F002
:10011800000E046E0A0E036EBBEC13F00150300F94
:10012800526EC00E0F6E4B505FEC15F0C10E0F6E85
:100138004C505FEC15F0C20E0F6E4D505FEC15F091
:10014800C30E0F6E4E505FEC15F0C40E0F6E4F507D
:100158005FEC15F0C50E0F6E50505FEC15F0575060
:10016800D8B4B9EF00F0BBEF00F0C7EF00F0C60E4F
:100178000F6E5F0E5FEC15F0C70E0F6E5F0E5FEC33
:1001880015F012EF02F0C60E0F6E51505FEC15F02D
:10019800C70E0F6E52505FEC15F012EF02F04204DA
:1001A800D8A4D9EF00F0DBEF00F071EF01F0482898
:1001B800D8A4E1EF00F0E3EF00F033EF01F03E5098
:1001C8003F10D8B4EAEF00F0ECEF00F033EF01F0A5
:1001D800000E3F6E000E3E6E4E500A0DF3CF11F02A
:1001E800F4CF12F04F501126000E1222F00E1124F7
:1001F800146EFD0E1220156E155007E13B0E145CAF
:10020800D8B009EF01F00BEF01F00FEF01F0144A3D
:10021800152A19EF01F03B0E14181510D8A417EF82
:1002280001F019EF01F019EF01F014C001F015C049
:1002380002F0000E046E0A0E036EACEC12F00150D0
:10024800300F4E6E14C001F015C002F0000E046E9F
:100258000A0E036EBBEC13F00150300F4F6EC00E48
:100268000F6E4B505FEC15F0C10E0F6E4C505FECEB
:1002780015F0C20E0F6E4D505FEC15F0C70E0F6EE5
:1002880052505FEC15F0C60E0F6E51505FEC15F032
:10029800C50E0F6E50505FEC15F05750D8B457EF9D
:1002A80001F059EF01F065EF01F0C30E0F6E5F0E1C
:1002B8005FEC15F0C40E0F6E5F0E5FEC15F012EFD9
:1002C80002F0C30E0F6E4E505FEC15F0C40E0F6EA9
:1002D8004F505FEC15F012EF02F0020E4218D8A44E
:1002E80078EF01F07AEF01F012EF02F04828D8A475
:1002F80080EF01F082EF01F0D6EF01F03E503F10A1
:10030800D8B489EF01F08BEF01F0D6EF01F0000EC1
:100318003F6E000E3E6E4B500A0DF3CF11F0F4CF36
:1003280012F04C501126000E1222F00E1124166EF7
:10033800FD0E1220176E175007E1170E165CD8B085
:10034800A8EF01F0AAEF01F0AEEF01F0164A172A64
:10035800BCEF01F0170E16181710D8A4B6EF01F06D
:10036800B8EF01F0BCEF01F0000E176E000E166E2C
:1003780016C001F017C002F0000E046E0A0E036EDC
:10038800ACEC12F00150300F4B6E16C001F017C0E4
:1003980002F0000E046E0A0E036EBBEC13F001505F
:1003A800300F4C6EC60E0F6E51505FEC15F0C70E35
:1003B8000F6E52505FEC15F0C20E0F6E4D505FEC91
:1003C80015F0C30E0F6E4E505FEC15F0C40E0F6E95
:1003D8004F505FEC15F0C50E0F6E50505FEC15F0E6
:1003E8005750D8B4FAEF01F0FCEF01F008EF02F033
:1003F800C00E0F6E5F0E5FEC15F0C10E0F6E5F0E34
:100408005FEC15F012EF02F0C00E0F6E4B505FEC70
:1004180015F0C10E0F6E4C505FEC15F04828D8A4AB
:1004280018EF02F01AEF02F03EEF02F000016B51F4
:100438006C11D8B422EF02F024EF02F03EEF02F084
:10044800000E6C6F000E6B6F020E42602EEF02F012
:1004580030EF02F033EF02F0422A3EEF02F0020ED4
:100468004218D8A43AEF02F03CEF02F03EEF02F057
:10047800000E426E050E4818D8A445EF02F047EF6B
:1004880002F09CEF02F03E50116E3F50126E3E4A51
:100498003F2A125009E1C90E115CD8A056EF02F0AC
:1004A80058EF02F09CEF02F0F29A000ED76E060E9B
:1004B800D66E000E0001646F000E656F000E666F49
:1004C800000E676F4EC011F0113AF00E11164F5022
:1004D800D00F1110136E13C002F0010E43EC15F08B
:1004E8004BC011F0113AF00E11164C50D00F1110EC
:1004F800136E13C002F0020E43EC15F051C011F058
:10050800113AF00E11165250D00F1110136E1350ED
:100518007F0B026E000E43EC15F0000E3F6E000ECE
:100528003E6E000E00017D6F000E7B6FBAEF02F089
:10053800060E4818D8A4A3EF02F0A5EF02F0BAEF10
:1005480002F000016B51116E6C51126E6B4B6C2BEB
:10055800125009E1C90E115CD8A0B5EF02F0B7EF4F
:1005680002F0BAEF02F0F29A98EF02F012000D6E64
:10057800040E4360C2EF02F0C4EF02F02EEF03F066
:10058800B70E036E2E0E046E800E056E52EC13F03D
:10059800550E036E2E0E046EC40E056E52EC13F04B
:1005A800050E0D18D8A4DBEF02F0DDEF02F0FCEF2A
:1005B80002F0950E4324D96EDA6A000EDA22300E64
:1005C800DF6EC90E4324D96EDA6A000EDA222A0ECB
:1005D800DF6E960E4324D96EDA6A000EDA22DF6ADD
:1005E800CA0E4324D96EDA6A000EDA22DF6A432A79
:1005F800060E0D18D8A403EF03F005EF03F024EF5F
:1006080003F0950E4324D96EDA6A000EDA22310E11
:10061800DF6EC90E4324D96EDA6A000EDA222A0E7A
:10062800DF6E960E4324D96EDA6A000EDA22DF6A8C
:10063800CA0E4324D96EDA6A000EDA22DF6A432A28
:10064800C90E036E000E046EC00E056E52EC13F058
:1006580019EF05F0030E436434EF03F036EF03F0AF
:10066800A8EF03F0080E43603CEF03F03EEF03F001
:10067800A8EF03F0500E036E2F0E046E800E056E69
:1006880052EC13F0560E036E2E0E046EC40E056E59
:1006980052EC13F0050E0D18D8A455EF03F057EFE0
:1006A80003F076EF03F0D10E4324D96EDA6A000E18
:1006B800DA22300EDF6EBF0E4324D96EDA6A000EDE
:1006C800DA222A0EDF6ED20E4324D96EDA6A000EC1
:1006D800DA22DF6AC00E4324D96EDA6A000EDA2203
:1006E800DF6A432A060E0D18D8A47DEF03F07FEFCA
:1006F80003F09EEF03F0D10E4324D96EDA6A000EA0
:10070800DA22310EDF6EBF0E4324D96EDA6A000E8C
:10071800DA222A0EDF6ED20E4324D96EDA6A000E70
:10072800DA22DF6AC00E4324D96EDA6A000EDA22B2
:10073800DF6A432AC30E036E000E046EC00E056EF8
:1007480052EC13F019EF05F0080E4318D8A4AFEFD8
:1007580003F0B1EF03F019EF05F0950E016E000EEE
:10076800026ED50E036E000E046E1CEC13F00150E1
:100778000210D8A4C2EF03F0C4EF03F0BCEF04F0FA
:10078800000E71EC12F0486E3F0E036E2F0E046ED1
:10079800800E056E52EC13F0950E036E2E0E046E4D
:1007A800C00E056E52EC13F0050E4818D8A4DFEF02
:1007B80003F0E1EF03F079EF04F000017151096EE5
:1007C80072510A6E714B722BD10E095C070E0A58D2
:1007D800D8A0F1EF03F0F3EF03F079EF04F0330E54
:1007E8000B6E000E0C6E950E0C24D96EDA6A000E94
:1007F800DA22DF50026E0B506DEC14F00B2A0C2A33
:10080800030E0C640AEF04F00CEF04F0F7EF03F0AA
:100818001D0E036E2F0E046E800E056E52EC13F043
:10082800EA0E036E2E0E046EC00E056E52EC13F027
:10083800010E566E000E0001646F000E656F000E0B
:10084800666F000E676F000ED76E060ED66EF294B6
:10085800F28A5650D8A433EF04F035EF04F02DEFA8
:1008680004F0F29A000ED76E060ED66E010E566E82
:10087800000E0001646F000E656F000E666F000EBB
:10088800676F000E726F000E716F000E436E000EE0
:10089800466ECF0E016E000E026E5D0E036E2E0EBA
:1008A800046E8DEC14F0C30E016E000E026E5D0E28
:1008B800036E2E0E046E8DEC14F0C90E016E000E40
:1008C800026E5D0E036E2E0E046E8DEC14F0000E9B
:1008D80000017E6F000E7B6F000E7D6F000E016EB3
:1008E800010EADEC14F019EF05F0060E4818D8A467
:1008F80080EF04F082EF04F019EF05F00001735166
:10090800096E74510A6E734B742BD10E095C070E75
:100918000A58D8A092EF04F094EF04F019EF05F00C
:10092800000E7B6F000E746F000E736F000E436E27
:10093800CF0E016E000E026E5D0E036E2E0E046E5B
:100948008DEC14F0C30E016E000E026E5D0E036E88
:100958002E0E046E8DEC14F0C90E016E000E026EA0
:100968005D0E036E2E0E046E8DEC14F019EF05F07B
:10097800C80E036E2E0E046E800E056E52EC13F038
:10098800510E036E2E0E046EC00E056E52EC13F05F
:10099800010E566E000E0001646F000E656F000EAA
:1009A800666F000E676F000ED76E060ED66EF29455
:1009B800F28A5650D8A4E3EF04F0E5EF04F0DDEF37
:1009C80004F0F29A000ED76E060ED66E010E566E21
:1009D800000E0001646F000E656F000E666F000E5A
:1009E800676F000E436E000E7B6FCF0E016E000E18
:1009F800026E5D0E036E2E0E046E8DEC14F0C30EA7
:100A0800016E000E026E5D0E036E2E0E046E8DECEE
:100A180014F0C90E016E000E026E5D0E036E2E0EEE
:100A2800046E8DEC14F019EF05F01200156E4650A7
:100A3800D8A421EF05F023EF05F039EF05F0330EC8
:100A4800FAEC14F000019F6F340EFAEC14F0000178
:100A5800A06F350EFAEC14F00001A16F360EFAEC17
:100A680014F00001A26F000EA36F040E4618D8A45C
:100A780040EF05F042EF05F054EF06F09F0E016ECF
:100A8800000E026E9A0E036E000E046E1CEC13F03C
:100A980001500210D8A453EF05F055EF05F058EFB8
:100AA80005F0300E27EF07F0000E466E0001BFBFBD
:100AB80067EF05F0BF5109E1020EBE5DD8A067EFF0
:100AC80005F069EF05F0C6EF05F0BE07D8A0BF072F
:100AD8009A0E016E000E026E5D0E036E2E0E046EEF
:100AE8008DEC14F0CF0E016E000E026E5D0E036EDB
:100AF8002E0E046E8DEC14F0000E016E010EADEC9E
:100B080014F0B10E036E2F0E046E800E056E52ECBB
:100B180013F0C00E0F6E0001BE51300F5FEC15F0E0
:100B2800C10E036E2F0E046EC10E056E52EC13F04B
:100B3800000ED76E060ED66E000E0001646F000E12
:100B4800656F000E666F000E676FF28AC251D8A4F7
:100B5800B0EF05F0B2EF05F0AAEF05F0F29A000E3B
:100B6800646F000E656F000E666F000E676F010EF2
:100B7800566E010EC26F000E016E010EADEC14F040
:100B880027EF07F02E0E036E2F0E046E800E056EF3
:100B980052EC13F0DC0E036E2F0E046EC00E056EC1
:100BA80052EC13F0000E00019A6F000ECF6F000E8A
:100BB800BF6F030EBE6F000ED76E060ED66E000E08
:100BC800646F000E656F000E666F000E676F000E93
:100BD800786F000E776F780E556EF28A3BEF06F04D
:100BE8007C51D8B4FAEF05F0FCEF05F03BEF06F0C6
:100BF800CA0E0F6E55C001F0026A000E046E640E34
:100C0800036EDFEC10F00150300F5FEC15F0CB0EE7
:100C18000F6E000E046E0A0E036E55C001F0026AD4
:100C2800DFEC10F001C009F002C00AF0000E0C6EF3
:100C38000A0E0B6E41EC11F00950300F5FEC15F005
:100C4800CC0E0F6E55C009F00A6A000E0C6E0A0E23
:100C58000B6E41EC11F00950300F5FEC15F0CD0E22
:100C68000F6E730E5FEC15F0000E00017C6FC15122
:100C7800D8A441EF06F043EF06F0F4EF05F0F29A3E
:100C8800000E646F000E656F000E666F000E676FD2
:100C9800010E566E010EC26F010EC16F27EF07F0ED
:100CA8004650D8A45AEF06F05CEF06F05DEF06F068
:100CB800F28AFB0E036E2E0E046E800E056E52EC49
:100CC80013F0550E036E2E0E046EC40E056E52EC14
:100CD80013F05650D8A473EF06F075EF06F0A2EFA4
:100CE80006F0F29A000ED76E060ED66E010E566EFC
:100CF800000E0001646F000E656F000E666F000E37
:100D0800676F000E7D6F9A0E016E000E026E5D0E0B
:100D1800036E2E0E046E8DEC14F0CF0E016E000ED5
:100D2800026E5D0E036E2E0E046E8DEC14F0000E36
:100D3800466E000E016E010EADEC14F0500E116EF1
:100D4800C30E126E000E136E000E146E1106000E06
:100D5800125A135A145A11280AE1122808E11328C2
:100D680006E11428D8A4BBEF06F0BDEF06F0AAEF01
:100D780006F0050E1518D8A4C4EF06F0C6EF06F065
:100D8800EEEF06F09A0E4624D96EDA6A000EDA22E1
:100D9800300EDF6ECF0E4624D96EDA6A000EDA22E4
:100DA8002A0EDF6E9B0E4624D96EDA6A000EDA220E
:100DB800DF6AD00E4624D96EDA6A000EDA22DF6ABC
:100DC800462A000E0001646F000E656F000E666F04
:100DD800000E676F060E1518D8A4F5EF06F0F7EFAA
:100DE80006F01FEF07F09A0E4624D96EDA6A000E55
:100DF800DA22310EDF6ECF0E4624D96EDA6A000E83
:100E0800DA222A0EDF6E9B0E4624D96EDA6A000EAD
:100E1800DA22DF6AD00E4624D96EDA6A000EDA22A8
:100E2800DF6A462A000E0001646F000E656F000E2F
:100E3800666F000E676FCF0E036E000E046EC00E55
:100E4800056E52EC13F012001950800B266E1950E3
:100E580019242D6E18AE33EF07F035EF07F036EF93
:100E680007F02D802D50D8B43CEF07F03EEF07F087
:100E780053EF07F02D28D8A444EF07F046EF07F00A
:100E88004EEF07F0000E166E000E176E000E186E6D
:100E9800000E196E188E000E196E5BEF07F0000E2B
:100EA800166E000E176E000E186E000E196E1D508D
:100EB800800B261A1D501D242E6E1CAE66EF07F0FF
:100EC80068EF07F069EF07F02E802E50D8B46FEF67
:100ED80007F071EF07F086EF07F02E28D8A477EF18
:100EE80007F079EF07F081EF07F0000E1A6E000E99
:100EF8001B6E000E1C6E000E1D6E1C8E000E1D6EED
:100F08008EEF07F0000E1A6E000E1B6E000E1C6EA0
:100F1800000E1D6E1A501B101C101D10D8A497EF40
:100F280007F099EF07F0B1EF07F0000E166E000E0C
:100F3800176E000E186E000E196E800E18127F0EB6
:100F480019122650191216C016F017C017F018C03B
:100F580018F019C019F0F4EF08F02D50D8A4B7EF25
:100F680007F0B9EF07F0C3EF07F0000E166E000E9A
:100F7800176E000E186E000E196EF4EF08F02E5062
:100F88002DC01EF01F6A1E5E000E1F5A7F0E1E2403
:100F9800276E000E1F20286E16C022F017C023F0FF
:100FA80018C024F019C025F0000E166E000E176E3A
:100FB800000E186E000E196E000E296E000E2A6EB5
:100FC800000E2B6E000E2C6E000E2E6E24EF08F015
:100FD8002E50D8B4F2EF07F0F4EF07F00BEF08F05B
:100FE800D8902236233624362536D890163617362A
:100FF800183619362CAE03EF08F005EF08F006EFA7
:1010080008F01680D89029362A362B362C361A50F6
:10101800225C1B5023581C5024581D502558D8A01A
:1010280018EF08F01AEF08F023EF08F02C8C1A508C
:10103800225E1B50235A1C50245A1D50255A2E2A12
:10104800190E2E642AEF08F02CEF08F0ECEF07F0E9
:101058002250231024102510D8B435EF08F037EFAC
:1010680008F04FEF08F029804FEF08F0D8901636B7
:101078001736183619362CAE44EF08F046EF08F04C
:1010880047EF08F01680D89029362A362B362C36AA
:101098002706D8A0280618AE54EF08F056EF08F037
:1010A8003AEF08F0000E2E6E2CAE5DEF08F05FEF01
:1010B80008F083EF08F0FF0E29141E6EFF0E2A14A5
:1010C8001F6EFF0E2B14206E7F0E2C14216E1E50E7
:1010D8001F1020102110D8B474EF08F076EF08F034
:1010E8007AEF08F0010E2E6E83EF08F016A07FEF5E
:1010F80008F081EF08F083EF08F076EF08F02E5043
:10110800D8B489EF08F08BEF08F0AFEF08F0010EC4
:101118001626000E17221822192219A096EF08F099
:1011280098EF08F0AFEF08F016C01EF017C01FF0D8
:1011380018C020F019C021F02134213220321F328A
:101148001E321EC016F01FC017F020C018F021C0B4
:1011580019F0274A282A28BEBAEF08F0285008E1D3
:101168002728D8A0BAEF08F0BCEF08F0C7EF08F0BE
:10117800000E286E2768000E166E000E176E000E01
:10118800186E000E196E28BED4EF08F0285006E13C
:101198002704D8B0D2EF08F0D4EF08F0E2EF08F057
:1011A800000E286E000E276E000E166E000E176ECB
:1011B800000E186E000E196E000E266E27C02DF058
:1011C8002DA0E9EF08F0EBEF08F0EEEF08F0188E2D
:1011D800EFEF08F0189ED8902D30196EA5EF07F0A4
:1011E80012001F6E000E71EC12F0486E00017B05B4
:1011F800D8B401EF09F003EF09F01DEF09F0050E6F
:101208004818D8A40AEF09F00CEF09F0C9EF09F063
:101218006D511D6E6E511E6E6D4B6E2BD10E1D5C89
:10122800070E1E58D8A01BEF09F01DEF09F0C9EFF3
:1012380009F0010E7B6F000E6E6F000E6D6F45504A
:10124800D8A429EF09F02BEF09F076EF09F0405008
:101258004110D8A432EF09F034EF09F041EF09F05A
:101268004750D8B43AEF09F03CEF09F08EEF0AF096
:101278001F50E0EC0BF08EEF0AF0020E4018411000
:10128800D8A449EF09F04BEF09F050EF09F01F50CF
:1012980030EC12F08EEF0AF040044110D8A457EF5A
:1012A80009F059EF09F065EF09F0000E416E000EE4
:1012B800406E1F508FEC0AF0000E00017B6F8EEF1E
:1012C8000AF0030E40184110D8A46DEF09F06FEF33
:1012D80009F074EF09F01F5009EC00F08EEF0AF0E6
:1012E8008EEF0AF0010E40241D6E000E41201E6E86
:1012F800020E1D181E10D8A484EF09F086EF09F01D
:101308008BEF09F01F5030EC12F08EEF0AF0010E4F
:1013180040241D6E000E41201E6E1D041E10D8A410
:1013280098EF09F09AEF09F09FEF09F01F508FEC42
:101338000AF060EF09F0010E40241D6E000E4120F6
:101348001E6E040E1D181E10D8A4ADEF09F0AFEFE5
:1013580009F0B4EF09F01F50BBEC02F08EEF0AF071
:10136800010E40241D6E000E41201E6E030E1D1836
:101378001E10D8A4C2EF09F0C4EF09F074EF09F009
:101388001F5009EC00F08EEF0AF0D8904034D96E67
:101398004134DA6EB40ED926000EDA22DECF03F01D
:1013A800DDCF04F0810E056E52EC13F0D890403476
:1013B800D96E4134DA6EB60ED926000EDA22DECFA7
:1013C80003F0DDCF04F0C10E056E52EC13F045506A
:1013D800D8A4F1EF09F0F3EF09F0FFEF09F0800E60
:1013E8000F6E2A0E5FEC15F0C00E0F6E200E5FEC2C
:1013F80015F009EF0AF0C00E0F6E2A0E5FEC15F01B
:10140800800E0F6E200E5FEC15F0060E4818D8A45B
:1014180010EF0AF012EF0AF02AEF0AF000016F51FC
:101428001D6E70511E6E6F4B702BD10E1D5C070E1A
:101438001E58D8A022EF0AF024EF0AF02AEF0AF08B
:10144800000E706F000E6F6F000E7D6F4828D8A4D5
:1014580030EF0AF032EF0AF05CEF0AF000016F514A
:101468007011D8B43AEF0AF03CEF0AF05CEF0AF0DA
:10147800000E706F000E6F6F4550D8A446EF0AF04B
:1014880048EF0AF04CEF0AF0010E456E5CEF0AF0E7
:1014980041BE5AEF0AF0415007E1030E405CD8B054
:1014A80058EF0AF05AEF0AF05CEF0AF0404A412A76
:1014B8004828D8A462EF0AF064EF0AF08EEF0AF029
:1014C80000016D516E11D8B46CEF0AF06EEF0AF09E
:1014D8008EEF0AF0000E6E6F000E6D6F4550D8B497
:1014E80078EF0AF07AEF0AF07EEF0AF0000E456E08
:1014F8008EEF0AF041BE89EF0AF0415008E140043E
:10150800D8A089EF0AF08BEF0AF08EEF0AF04006B8
:10151800D8A041061200000E126E4750D8A497EFCB
:101528000AF099EF0AF0DAEF0AF0CF0E026E2F0EEA
:10153800036EEDEC13F0840E036E2E0E046E800E17
:10154800056E52EC13F0510E036E2E0E046EC00E93
:10155800056E52EC13F0010E566E000E0001646F1A
:10156800000E656F000E666F000E676F000ED76E77
:10157800060ED66EF294F28A5650D8A4C6EF0AF038
:10158800C8EF0AF0C0EF0AF0F29A000ED76E060E06
:10159800D66E010E566E000E0001646F000E656F68
:1015A800000E666F000E676FDFEF0BF02C0E026EF9
:1015B8002E0E036EEDEC13F0000E116EA5EF0BF07E
:1015C8001250FAEC14F0136E122A13C001F0026ADA
:1015D800000E046E0A0E036EDFEC10F00150300F9F
:1015E80000017F6F13C009F00A6A000E0C6E0A0E24
:1015F8000B6E41EC11F00950300F0001806F3A0E6C
:10160800816F1250FAEC14F0136E122A13C001F015
:10161800026A000E046E0A0E036EDFEC10F0015031
:10162800300F0001826F13C009F00A6A000E0C6EB9
:101638000A0E0B6E41EC11F00950300F0001836F58
:101648003A0E846F1250FAEC14F0136E122A13C07B
:1016580001F0026A000E046E0A0E036EDFEC10F051
:101668000150300F0001856F13C009F00A6A000E9F
:101678000C6E0A0E0B6E41EC11F00950300F000190
:10168800866F200E876F1250FAEC14F0136E122A30
:101698001350020DA40EF324D96E000EF420DA6E56
:1016A800DECFF6FFDDCFF7FF0800F5CF88F0135047
:1016B800020DA40EF324D96E000EF420DA6EDECFEC
:1016C8000FF0DDCF10F0010E0F26000E10220FC014
:1016D800F6FF10C0F7FF0800F5CF89F0200E0001D3
:1016E8008A6F200E8B6F1250FAEC14F0136E122AC8
:1016F80013C001F0026A000E046E0A0E036EDFECDE
:1017080010F00150300F00018C6F13C009F00A6A05
:10171800000E0C6E0A0E0B6E41EC11F00950300FE2
:1017280000018D6F000E8E6F7F0E026E000E036E2D
:10173800EDEC13F03C0E026E2E0E036EEDEC13F082
:10174800112A4750115CD8A0ACEF0BF0AEEF0BF0AC
:10175800E4EF0AF0170E026E2E0E036EEDEC13F096
:10176800620E036E2E0E046E800E056E52EC13F0A0
:10177800A60E036E2E0E046EC00E056E52EC13F00C
:10178800010E566E000E0001646F000E656F000EAC
:10179800666F000E676F000ED76E060ED66EF29457
:1017A800F28A5650D8A4DBEF0BF0DDEF0BF0D5EF43
:1017B8000BF0C8EF0AF012001A6E0C0E036E2F0E13
:1017C800046E800E056E52EC13F0600E036E2E0E42
:1017D800046ECF0E056E52EC13F0000E71EC12F091
:1017E800486E060E4818D8A4FCEF0BF0FEEF0BF07D
:1017F80010EF0CF0442A4404116E140E116407EF24
:101808000CF009EF0CF010EF0CF0000E00017B6FEC
:10181800000E546E000E446E050E1A18D8A417EF69
:101828000CF019EF0CF022EF0CF05450D8B41FEF65
:101838000CF021EF0CF022EF0CF054064828D8A445
:1018480028EF0CF02AEF0CF04DEF0CF04450D8B410
:1018580030EF0CF032EF0CF04DEF0CF0FF0E472498
:10186800116E126AFF0E12225450136E146A115030
:10187800135C1450800A156E1250800A1558D8B09F
:1018880048EF0CF04AEF0CF04BEF0CF0542A000E26
:10189800446E5450050DF3CF1BF01B50FAEC14F0B6
:1018A8001C6E1B2AC00E0F6E1CC001F0026A000ECF
:1018B800046E0A0E036EDFEC10F00150300F5FEC7F
:1018C80015F0C10E0F6E1CC009F00A6A000E0C6EEE
:1018D8000A0E0B6E41EC11F00950300F5FEC15F059
:1018E800C20E0F6E3A0E5FEC15F01B50FAEC14F0B6
:1018F8001C6E1B2AC30E0F6E1CC001F0026A000E7C
:10190800046E0A0E036EDFEC10F00150300F5FEC2E
:1019180015F0C40E0F6E1CC009F00A6A000E0C6E9A
:101928000A0E0B6E41EC11F00950300F5FEC15F008
:10193800C50E0F6E3A0E5FEC15F01B50FAEC14F062
:101948001C6E1B2AC60E0F6E1CC001F0026A000E28
:10195800046E0A0E036EDFEC10F00150300F5FECDE
:1019680015F0C70E0F6E1CC009F00A6A000E0C6E47
:101978000A0E0B6E41EC11F00950300F5FEC15F0B8
:10198800C80E0F6E200E5FEC15F01B50FAEC14F029
:101998001C6E1B2A1C50020DA40EF324D96E000ED7
:1019A800F420DA6EDECF03F0DDCF04F0C90E056E49
:1019B80052EC13F05F0E036E2E0E046ECB0E056E06
:1019C80052EC13F01B50FAEC14F01C6E1B2ACD0ECF
:1019D8000F6E1CC001F0026A000E046E0A0E036E40
:1019E800DFEC10F00150300F5FEC15F0CE0E0F6EEB
:1019F8001CC009F00A6A000E0C6E0A0E0B6E41EC50
:101A080011F00950300F5FEC15F0500E166EC30E32
:101A1800176E000E186E000E196E1606000E175A75
:101A2800185A195A16280AE1172808E1182806E151
:101A38001928D8A422EF0DF024EF0DF011EF0DF0C6
:101A480012003C6E0B0E3C18D8B42DEF0DF02FEFA2
:101A58000DF038EF0DF000017D51D8B436EF0DF0E0
:101A680038EF0DF04BEF0DF0010E00017D6F3C508B
:101A78001AEC05F0300AD8A444EF0DF046EF0DF04B
:101A880064EF0EF03C50F5EC08F064EF0EF0140E25
:101A98001A6EAE0E1B6E230E1C6E410E1D6E040ECA
:101AA8004AEC14F001C008F002C009F00A6A0B6A97
:101AB800000E65EC0EF008C016F009C017F00AC059
:101AC80018F00BC019F028EC07F016C02FF017C05B
:101AD80030F018C031F019C032F05CEC10F02FC0B3
:101AE8003AF030C03BF00C0E036E2F0E046E800EE1
:101AF800056E52EC13F0EDEC11F04B0E036E000E78
:101B0800046EC00E056E52EC13F0C80E0F6E200E58
:101B18005FEC15F0CB0E0F6E200E5FEC15F0CC0EBF
:101B28000F6E200E5FEC15F0CF0E0F6E200E5FECDF
:101B380015F04B500A0DF3504C24F00F00018F6F35
:101B48004E500A0DF3504F24F00F906F51500A0D6C
:101B5800F3505224F00F916F3AC093F0000E946F37
:101B6800320EFAEC14F0476E3C04D8A4BEEF0DF028
:101B7800C0EF0DF0D8EF0DF0070E496E070E00010B
:101B8800926F472A4704396E0A0E3960CEEF0DF07E
:101B9800D0EF0DF034EF0EF08F0E066E000E076ECC
:101BA800E6EC12F034EF0EF0020E3C18D8A4DFEF8A
:101BB8000DF0E1EF0DF006EF0EF0070E4918D8A46E
:101BC800E8EF0DF0EAEF0DF0EEEF0DF0020E496EC2
:101BD800F7EF0DF0060E4960F4EF0DF0F6EF0DF09B
:101BE800F7EF0DF0492A49C092F0472A4704396EA9
:101BF8000A0E396002EF0EF004EF0EF034EF0EF02B
:101C0800D0EF0DF0030E3C18D8A40DEF0EF00FEF37
:101C18000EF034EF0EF0070E4918D8A416EF0EF0A8
:101C280018EF0EF01CEF0EF0020E496E25EF0EF0C5
:101C3800010E496422EF0EF024EF0EF025EF0EF0AE
:101C4800490649C092F0472A4704396E0A0E39609E
:101C580030EF0EF032EF0EF034EF0EF0D0EF0DF063
:101C68004950020DA40EF324D96E000EF420DA6E4A
:101C7800DECF03F0DDCF04F0C90E056E52EC13F091
:101C8800CD0E0F6E3AC001F03BC002F0000E046E9C
:101C98000A0E036EACEC12F00150300F5FEC15F039
:101CA800CE0E0F6E3AC001F03BC002F0000E046E7B
:101CB8000A0E036EBBEC13F00150300F5FEC15F009
:101CC8001200106E1050D8B46CEF0EF06EEF0EF0DC
:101CD80090EF0EF00BBE75EF0EF073EF0EF090EF75
:101CE8000EF008C00CF009C00DF00AC00EF00BC0D1
:101CF8000FF00C1E0D1E0E1E0F1E0C2A000E0D22BC
:101D08000E220F220CC012F00DC013F00EC014F0FA
:101D18000FC015F098EF0EF008C012F009C013F0CC
:101D28000AC014F00BC015F0085009100A100B1067
:101D3800D8A4A1EF0EF0A3EF0EF0ADEF0EF0000E59
:101D4800086E000E096E000E0A6E000E0B6E3EEF56
:101D58000FF0960E116EB7EF0EF0112AD8901532CB
:101D6800143213321232000E12140C6E000E1314B9
:101D78000D6E000E14140E6EFE0E15140F6E0C5020
:101D88000D100E100F10D8A4CCEF0EF0CEEF0EF001
:101D9800B1EF0EF0DCEF0EF0112A010E1226000E44
:101DA800132214221522D89015321432133212320B
:101DB800000E12140C6E000E13140D6E000E141487
:101DC8000E6EFF0E15140F6E0C500D100E100F1026
:101DD800D8A4F1EF0EF0F3EF0EF0D0EF0EF0FBEF1A
:101DE8000EF01106D890123613361436153614BE76
:101DF80000EF0FF002EF0FF00AEF0FF0020E116084
:101E080008EF0FF00AEF0FF0F5EF0EF011B00FEF3B
:101E18000FF011EF0FF012EF0FF0149ED89011325F
:101E280011C00CF00D6A0E6A0F6A0CC00FF00E6A32
:101E38000D6A0C6A0C5012120D5013120E50141227
:101E48000F5015121050D8B42CEF0FF02EEF0FF0E2
:101E580036EF0FF00BBE35EF0FF033EF0FF036EF24
:101E68000FF0158E12C008F013C009F014C00AF064
:101E780015C00BF012000600F2A445EF0FF047EF73
:101E88000FF0D6EF0FF0080ED624D66E000ED7202E
:101E9800D76E010E00016027000E612362236323C1
:101EA800110E601909E1270E611962116311D8A496
:101EB80060EF0FF062EF0FF075EF0FF0000E606F3C
:101EC800000E616F000E626F000E636F5750D8B43A
:101ED80070EF0FF073EF0FF0010E74EF0FF0000EBC
:101EE800576E010E6427000E652366236723A10E33
:101EF80064190AE1860E651907E166056711D8A419
:101F080088EF0FF08AEF0FF08CEF0FF0000E566E8F
:101F1800C00E64190BE1270E651908E1090E661950
:101F28006711D8A49AEF0FF09CEF0FF09EEF0FF017
:101F3800000EC26F800E64190BE14F0E651908E19F
:101F4800120E66196711D8A4ACEF0FF0AEEF0FF0C0
:101F5800B8EF0FF0000EC16F000E646F000E656FD2
:101F6800000E666F000E676F774B782B210E77197E
:101F780007E14E0E7819D8A4C4EF0FF0C6EF0FF0A2
:101F8800D5EF0FF05550D8B4CCEF0FF0CEEF0FF0DF
:101F9800CFEF0FF05506010E7C6F000E786F000E24
:101FA800776FF29459921100819A818C818E81B257
:101FB800E0EF0FF0E2EF0FF0E5EF0FF0010E5BEF4F
:101FC80010F081B4EAEF0FF0ECEF0FF0EFEF0FF045
:101FD800040E5BEF10F081B6F4EF0FF0F6EF0FF0A0
:101FE800F9EF0FF0070E5BEF10F081B8FEEF0FF07E
:101FF80000EF10F003EF10F00A0E5BEF10F0818A8B
:10200800819C818E81B20BEF10F00DEF10F010EF74
:1020180010F0020E5BEF10F081B415EF10F017EF1F
:1020280010F01AEF10F0050E5BEF10F081B61FEFFD
:1020380010F021EF10F024EF10F0080E5BEF10F015
:1020480081B829EF10F02BEF10F02EEF10F00B0EE7
:102058005BEF10F0818A818C819E819E81B237EF7F
:1020680010F039EF10F03CEF10F0030E5BEF10F0BA
:1020780081B441EF10F043EF10F046EF10F0060E78
:102088005BEF10F081B64BEF10F04DEF10F050EF12
:1020980010F0090E5BEF10F081B855EF10F057EF14
:1020A80010F05AEF10F00C0E5BEF10F0FF0E12005C
:1020B80031343234386E3850D8A465EF10F067EFF9
:1020C80010F071EF10F0000E2F6E000E306E000E43
:1020D800316E000E326EDEEF10F02FC033F030C0DC
:1020E80034F031C035F032C036F0200E81EF10F0F8
:1020F800D8903632353234323332E82E7CEF10F055
:102108003350376E318EFF0E2F16FF0E3016FF0E2E
:102118003116000E3216960E385E38BE98EF10F063
:1021280096EF10F0AEEF10F03850800A970FD8B045
:10213800A0EF10F0A2EF10F0A4EF10F067EF10F08E
:10214800D8903232313230322F32383EA4EF10F08C
:10215800C6EF10F01F0E3864B4EF10F0B6EF10F0B1
:10216800BEEF10F067EF10F0D8902F3630363136CA
:10217800323638063850D8A4C4EF10F0C6EF10F045
:10218800B8EF10F03750D8B4CCEF10F0CEEF10F015
:10219800D6EF10F0321E311E301E2F6C000E30228A
:1021A800312232222FC02FF030C030F031C031F050
:1021B80032C032F01200000E066E04BEE8EF10F0D6
:1021C800E6EF10F0EEEF10F0036C041ED8B0042A0E
:1021D800010E066E02BEF5EF10F0F3EF10F0FBEF04
:1021E80010F0016C021ED8B0022A010E061A000E69
:1021F800086E000E076E03500410D8B406EF11F0F5
:1022080008EF11F030EF11F0010E056E10EF11F02C
:10221800D89003360436052A04AE15EF11F017EFEF
:1022280011F00CEF11F0D890073608360350015C16
:1022380004500258D8A023EF11F025EF11F02AEF2F
:1022480011F00350015E0450025A0780D8900432FE
:102258000332052E17EF11F00650D8B436EF11F0FF
:1022680038EF11F03CEF11F0076C081ED8B0082ABF
:1022780007C001F008C002F01200000E0E6E0ABE80
:102288004AEF11F048EF11F050EF11F0096C0A1EF7
:10229800D8B00A2A010E0E6E0CBE57EF11F055EF9A
:1022A80011F05BEF11F00B6C0C1ED8B00C2A0B5020
:1022B8000C10D8B462EF11F064EF11F088EF11F050
:1022C800010E0D6E6CEF11F0D8900B360C360D2AFE
:1022D8000CAE71EF11F073EF11F068EF11F00B50C5
:1022E800095C0C500A58D8A07CEF11F07EEF11F071
:1022F80082EF11F00B50095E0C500A5AD8900C323C
:102308000B320D2E73EF11F00E50D8B48EEF11F082
:1023180090EF11F094EF11F0096C0A1ED8B00A2A58
:1023280009C009F00AC00AF01200000E956E945018
:10233800F80B946E8290C30E036ECD0EE82EFED776
:10234800032EFCD700F0000E016E330EADEC14F036
:102358001B0E036E9E0EE82EFED7032EFCD700D070
:10236800000E016E330EADEC14F0A60EE82EFED76B
:1023780000D0000E016E330EADEC14F000D000D08A
:1023880000F0000E016E020EADEC14F0A60EE82E61
:10239800FED700D0000E016E380EADEC14F0A60E7C
:1023A800E82EFED700D0000E016E010EADEC14F041
:1023B800040E036E3E0EE82EFED7032EFCD7000E49
:1023C800016E0C0EADEC14F0A60EE82EFED700D070
:1023D8001200020EE5EC14F00001686F010EE5EC46
:1023E80014F00001696F000EE5EC14F000016A6F4B
:1023F80068AD01EF12F003EF12F00EEF12F068393A
:102408000F0B010B300F4B6E68510F0B300F4C6EDA
:1024180017EF12F068390F0B030B300F4B6E685132
:102428000F0B300F4C6E3A0E4D6E69390F0B0F0BB8
:10243800300F4E6E69510F0B300F4F6E3A0E506EC3
:102448006A390F0B0F0B300F516E6A510F0B300F9B
:10245800526E000E536E1200000E026E320E6DECBC
:1024680014F03F0E036E2E0E046E800E056E52ECB5
:1024780013F0D90E036E2E0E046EC00E056E52ECCC
:1024880013F0010E566E000E0001646F000E656FAA
:10249800000E666F000E676F000ED76E060ED66EC2
:1024A800F294F28A5650D8A45CEF12F05EEF12F064
:1024B80056EF12F0F29A000ED76E060ED66E010E87
:1024C800566E000E0001646F000E656F000E666F99
:1024D800000E676F000E7B6F1200016E0104D8A416
:1024E80078EF12F07AEF12F09EEF12F0D8EC0FF0BE
:1024F8004A6E4A28D8B483EF12F085EF12F092EFB3
:1025080012F05850D8B48BEF12F08DEF12F092EF12
:1025180012F0000E586E4A50ABEF12F04A28D8A4B9
:1025280098EF12F09AEF12F0AAEF12F0010E586E1F
:10253800AAEF12F00150D8A4A4EF12F0A6EF12F0FF
:10254800AAEF12F0D8EC0FF0ABEF12F0FF0E12006A
:10255800000E066E000E056E03500410D8B4B7EFD7
:1025680012F0B9EF12F0E1EF12F0010E076EC1EFB1
:1025780012F0D89003360436072A04AEC6EF12F0DC
:10258800C8EF12F0BDEF12F0D890053606360350AA
:10259800015C04500258D8A0D4EF12F0D6EF12F024
:1025A800DBEF12F00350015E0450025A0580D89008
:1025B80004320332072EC8EF12F005C001F006C03E
:1025C80002F01200000E096E0001C02BC005086E53
:1025D8000A0E0864F2EF12F0F4EF12F008EF13F0AD
:1025E800000EC06F000E796F08EF13F00950062433
:1025F800D96E000E0720DA6EDF50026E79516DEC4D
:1026080014F00001792B092A09500624D96E000E0E
:102618000720DA6EDF50D8A414EF13F016EF13F08A
:10262800FAEF12F047C002F0320E6DEC14F012000F
:1026380022EF13F0014A022A034A042A03C0D9FFF1
:1026480004C0DAFF01C0E1FF02C0E2FFDE50E61875
:10265800D8A431EF13F033EF13F03FEF13F001C0BC
:10266800D9FF02C0DAFFDF50D8A43DEF13F03FEFE7
:1026780013F01EEF13F001C0D9FF02C0DAFFDF50DC
:10268800056E03C0D9FF04C0DAFFDF50066E06509E
:10269800055C016E026AD8A002061200000E016EE7
:1026A8000550ADEC14F06FEF13F0010E016E03C08E
:1026B800F6FF04C0F7FFF86A050EF76403D00800B8
:1026C800F55005D0F6CFE9FFF7CFEAFFEF50ADECB4
:1026D80014F0034A042A03C0F6FF04C0F7FFF86A9F
:1026E800050EF76403D00800F55005D0F6CFE9FFD2
:1026F800F7CFEAFFEF500009D8A485EF13F087EF72
:1027080013F059EF13F01200940EF66E290EF76EBF
:10271800000EF86E00EEA4F010EE36F00900F5CFCA
:10272800EEFFE550E150FAE17A0EF66E2B0EF76EE9
:10273800000EF86E00EE55F010EE04F00900F5CF2B
:10274800EEFFE550E150FAE100EE60F0440EEE6A6B
:10275800E806FDE100EE3EF0170EEE6AE806FDE140
:1027680059905992000EF86E000152EF15F003507F
:102778000410D8B4C2EF13F0C4EF13F0E8EF13F06D
:10278800010E056ECCEF13F0D89003360436052AF7
:1027980004AED1EF13F0D3EF13F0C8EF13F00350EA
:1027A800015C04500258D8A0DCEF13F0DEEF13F000
:1027B800E2EF13F00350015E0450025AD89004323D
:1027C8000332052ED3EF13F001C001F002C002F06E
:1027D800120003EF14F002C0F6FF03C0F7FFF86A17
:1027E800050EF76403D00800F55005D0F6CFE9FFD1
:1027F800F7CFEAFFEF5081EC15F0024A032A02C036
:10280800F6FF03C0F7FFF86A050EF76403D0080067
:10281800F55005D0F6CFE9FFF7CFEAFFEF500009F2
:10282800D8A419EF14F01BEF14F0EFEF13F0120017
:10283800000EE5EC14F0046E04508009026E000EE0
:1028480043EC15F0010EE5EC14F0046E0450010998
:10285800026E010E43EC15F0020EE5EC14F0046E66
:1028680004502109026E020E43EC15F0930E026E1D
:10287800070E43EC15F0000EE5EC14F0046E04505E
:102888007F0B026E000E43EC15F01200076E07C0B6
:1028980003F0D8900336D8900336C250C30B031008
:1028A800C26EC282C2B25BEF14F05DEF14F056EF55
:1028B80014F0C350C4CF03F0046A03C004F0036AE1
:1028C8000310056E0450066E05C001F006C002F044
:1028D8001200056EB6EC15F0A00EA4EC15F005502C
:1028E800A4EC15F00250A4EC15F0B2EC15F00B0EA8
:1028F800046EB80E036E0306D8A00406032806E18A
:102908000428D8A48AEF14F08CEF14F07FEF14F0A9
:10291800120003C005F004C006F001C007F002C0B1
:1029280008F005C0F6FF06C0F7FF054A062A07C0EB
:10293800D9FF08C0DAFF074A082A0800F5CFDFFFE9
:10294800DF50D8A4AAEF14F0ACEF14F095EF14F010
:102958001200026E01B0B3EF14F0B6EF14F08282E9
:10296800B7EF14F0829202C083FF82848294958E1E
:10297800828082928284829483BEC5EF14F0C7EF6E
:1029880014F0BEEF14F08290959E1200F82FFB2FE2
:10299800F52FE62FE92FEC2FEF2FF22F712F912F24
:1029A800812F612FA12F0300010101202020200089
:1029B80000202020200000202020200000202020AF
:1029C8002000026EB6EC15F0D00EA4EC15F0025003
:1029D800A4EC15F0AAEC15F0D10EA4EC15F09EECC1
:1029E80015F0036EB2EC15F003501200026EB6EC4F
:1029F80015F0A00EA4EC15F00250A4EC15F0AAEC0A
:102A080015F0A10EA4EC15F09EEC15F0036EB2ECD7
:102A180015F003501200948E949CAC9CAC8AAC9830
:102A2800AC96AC84AB8EAB9CAB88B89EB896B8928B
:102A3800B890810EAF6E9E989E9A120099EC11F094
:102A48008CEC15F033EC15F06BEC15F076EC15F01A
:102A58001CEC14F00FEC15F0F28CF28E1200C08E04
:102A6800C09AC088C096C090C082C094C292C19AD1
:102A7800C198000EC46E000EC36EC2801200036EB1
:102A8800B6EC15F0D00EA4EC15F00350A4EC15F03C
:102A98000250A4EC15F0B2EC15F0120022EC15F07F
:102AA800010E71EC12F03D6E3D5025EC0DF054EF27
:102AB80015F007EF00F0106E000E016E0F50ADEC30
:102AC80014F0010E016E1050ADEC14F01200D58C0C
:102AD800D59AD58ED586000ED76E060ED66EF29490
:102AE800F29A120094869488280EC66E310EC86E2B
:102AF800C79CC78E9E96A1961200016E9EA887EF6E
:102B080015F089EF15F082EF15F001C0ADFF120046
:102B18000F0EC16E1E0E936EF19E8150E009816EFC
:102B280012009EA69AEF15F09CEF15F095EF15F0A0
:102B38009E961200AEEC15F0BAEC15F0C9501200D2
:102B4800016E01C0C9FF95EC15F01200C58295EC25
:102B580015F01200C58695EC15F01200C58495ECA9
:102B680015F01200C58095EC15F01200C58AC588CD
:062B7800120078010101CA
:102E160000444F574E4C4F414420434F4D504C4574
:102E26005445440A0D00202054494D452020204594
:102E36005620205350200A0D0020202020436C6588
:102E46006172204C6F672020202000202020202047
:102E5600202020202020202020202000202020208C
:102E6600444F574E4C4F4144202020200020202024
:102E7600205345545F54494D4520202020002020F2
:102E860020204C4F4720454D5054592020200020EB
:102E9600202020636F72726563746C792020200095
:102EA6002020205355434345535346554C4C202030
:102EB6000020206E65772070617373776F726420CF
:102EC600200020646F65736E2774206D61746368DB
:102ED6002020002020205375636365737366756C2C
:102EE6006C20200020207375636365737366756CB0
:102EF6006C79202000454E5445522050415353577B
:102F06004F52443A2000202054494D452020204568
:102F1600562020535020002070617373776F7264BF
:102F26002073617665642000796F75206172652073
:102F3600626C6F636B6564210070617373776F7287
:102F46006420656E746572656400636F6E6669728F
:102F56006D2070617373776F72640053455420540B
:102F6600494D452020202020202000564945572045
:102F76004C4F472020202020202000434C45415222
:102F8600204C4F4720202020202000444F574E4CF5
:102F96004F4144204D454E552020004348414E4761
:102FA600452050415353574F524400415454454DC8
:102FB6005054204641494C555245002041545445F1
:102FC6004D5054204C454654006C6F6720656D701B
:102FD6007479200A0D007761697420666F7220008B
:102FE6004731004732004733004734005F4300470C
:092FF6004E004F4E00475200004E
:020000040020DA
:08000000FFFFFFFFFFFFFFFF00
:020000040030CA
:0E000000FF071F1FFF8285FF0FC00FE00F409C
:00000001FF
